:0400000043EF00F0DA
:100008000F82FACF01F0FBCF02F0E9CF03F0EACF7D
:1000180004F0E1CF05F0E2CF06F0D9CF07F0DACF50
:1000280008F0F3CF09F0F4CF0AF0F6CF0BF0F7CFD2
:100038000CF0F8CF0DF0F5CF0EF0F2B4F2949EB2BA
:100048009E920EC0F5FF0DC0F8FF0CC0F7FF0BC065
:10005800F6FF0AC0F4FF09C0F3FF08C0DAFF07C0C3
:10006800D9FF06C0E2FF05C0E1FF04C0EAFF03C0F4
:10007800E9FF02C0FBFF01C0FAFF0F92110068EF11
:1000880000F0D388D38AD38C000E0F01386F000E8E
:100098000F01396F928893949D829F82BA84BA9295
:1000A800BA90010EBB6E0F015451F00B0509546F45
:1000B800F30E0F0148177A847C94D08EF28EF28C5E
:1000C800F28A9D8C9F8C12000F900F9200016DEFA9
:0800D80000F045EC00F0FFD739
:020000040020DA
:08000000FFFFFFFFFFFFFFFF00
:020000040030CA
:0E000000FF281F3CFFBF81FF0FC00FE00F4025
:00000001FF
