:0400000088EF00F095
:100008004382FACF0DF0FBCF0EF0E9CF0FF0EACF25
:1000180010F0E1CF11F0E2CF12F0D9CF13F0DACF20
:1000280014F0F3CF15F0F4CF16F0F6CF17F0F7CFA2
:1000380018F0F8CF19F0F5CF1AF09EB21DD024D0E1
:10004800BB68809A2B4A2C2A2CBE06D0580E2B5CF3
:10005800020E2C58D8B003D02B4A2C2A14D0010EEB
:10006800346E000E2C6E000E2B6E0DD0030EBB6E80
:10007800808A000E346E07D03450000AD8B4E0D716
:10008800010AD8B4F3D79E929EA004D0000E1C6E2D
:10009800000E1B6E7BA417D080A809D055CF29F07D
:1000A80056CF2AF00F015451F00B04090AD055CF4E
:1000B80008F056CF09F0DBEC00F00F015451F00BBB
:1000C8000509546F7B949EB68FEC01F01AC0F5FFBA
:1000D80019C0F8FF18C0F7FF17C0F6FF16C0F4FFE5
:1000E80015C0F3FF14C0DAFF13C0D9FF12C0E2FF36
:1000F80011C0E1FF10C0EAFF0FC0E9FF0EC0FBFF0F
:100108000DC0FAFF4392110035EF02F043B2DBEF66
:1001180000F02950245C2A502558D8A011D029C0B5
:1001280060F02AC061F00001601F611F604B612B05
:10013800245000016025296E25500001612116D048
:1001480029C060F02AC061F00001601F611F604B88
:10015800612BFF0E00016025296EFF0E0001612151
:100168002A6E29502424296E2A5025202A6E29C057
:100178001DF02AC01EF0000E206E0D0E1F6EC2EC80
:1001880001F01D50336E33C01DF0010E4FEC02F02C
:100198003C0E336403D0808680841200140E3364CE
:1001A80003D0808680941200809680941200295093
:1001B800085C2A500958D8A00ED029C00BF02AC0D4
:1001C8000CF00B1E0C1E0B4A0C2A08500B24296E2F
:1001D80009500C2013D029C00BF02AC00CF00B1EBC
:1001E8000C1E0B4A0C2AFF0E0B24296EFF0E0C2046
:1001F8002A6E29500824296E2A5009202A6E29C0FF
:1002080001F02AC002F0000E046E0D0E036EEBEC36
:1002180001F00150336E33C001F0010E5BEC02F0C7
:100228003C0E336403D0808680841200140E33643D
:1002380003D0808680941200809680941200000E6D
:100248000F01386F928892949296929AD08EF28E7D
:10025800F28C9D829F82BA50BA84BA92BA90010EEB
:10026800BB6E0F015451F00B0509546FF30E0F01CB
:1002780048177A847C949D809F80CD80CF0ECD16C0
:100288003F0ECD16CD8294860F013A9794880F01C0
:100298003A99C68A180EC86EFE0ECA6EC650F00B82
:1002A8000E09C66ECB9CCB9ACB949D869F96120066
:1002B800C7A62FD0C7A414D0C7AA03D006D0C68813
:1002C80028D0C95070EC02F02F6E2F50010D300E5F
:1002D800F324D96E000EF420DA6EDF50C96EEFD722
:1002E800C7A017D0C7AA11D02FC024F0256AC9CF3C
:1002F80026F001D80ED00500FA6E2750FD6E285062
:10030800FE6EF850FF6EFA501200C95070EC02F001
:100318002F6E9E961200C7A62FD0C7A414D0C7AAC6
:1003280003D006D0C68828D0C95077EC02F02F6ECB
:100338002F50010D300EF324D96E000EF420DA6E22
:10034800DF50C96EEFD7C7A017D0C7AA11D02FC0EA
:1003580008F0096AC9CF0AF001D80ED00500FA6E74
:100368002750FD6E2850FE6EF850FF6EFA501200AE
:10037800C95077EC02F02F6E9E961200000E226E86
:10038800000E216E1F502010D8B41CD0010E236E11
:1003980004D0D8901F362036232A20AEFAD7D8901A
:1003A800213622361F501D5C20501E58D8A005D07B
:1003B8001F501D5E20501E5A2180D89020321F32B7
:1003C800232EEDD721C01DF022C01EF01200000E12
:1003D800066E000E056E03500410D8B41CD0010E32
:1003E800076E04D0D89003360436072A04AEFAD72D
:1003F800D890053606360350015C04500258D8A040
:1004080005D00350015E0450025A0580D89004328A
:100418000332072EEDD705C001F006C002F0120026
:1004280020EE0AF01D50D9261E50DA22000EDF6E8B
:1004380020EE0BF01D50D9261E50DA22000EDF6E7A
:1004480020EE0CF01D50D9261E50DA22FF0EDF6E6A
:1004580020EE0DF01D50D9261E50DA22000EDF6E58
:10046800120000EE27F01C0EEE6AE806FDE143904C
:100478004392000EF86E000142EF02F023EC01F007
:1004880067EC02F05CEC01F0140E1D6E010E1E6E9E
:100498007EEC02F0FFD71E6E1E50010D300EF324C5
:1004A800D96E000EF420DA6E1DC0DFFF1200026E56
:1004B8000250010D300EF324D96E000EF420DA6ECE
:1004C80001C0DFFF1200000E326E350E1D6E000EE9
:1004D8001E6E14EC02F012001D6ED8901D32010E33
:1004E8001D161D501200016ED8900132010E011622
:0E04F800015012001DC027F01EC028F0120097
:020000040020DA
:08000000FFFFFFFFFFFFFFFF00
:020000040030CA
:0E000000FF281F3CFFBF81FF0FC00FE00F4025
:00000001FF
