:0400000085EF00F098
:100008003882FACF24F0FBCF25F0E9CF26F0EACFEB
:1000180027F0E1CF28F0E2CF29F0D9CF2AF0DACFC4
:100028002BF0F3CF2CF0F4CF2DF0F6CF2EF0F7CF46
:100038002FF0F8CF30F0F5CF31F09EB21DD024D09C
:10004800BB68809A094A0A2A0ABE06D0580E095C7B
:10005800020E0A58D8B003D0094A0A2A14D0010E51
:10006800106E000E0A6E000E096E0DD0030EBB6EE8
:10007800808A000E106E07D01050000AD8B4E0D75E
:10008800010AD8B4F3D79E929EA004D0000E336E16
:10009800000E326E7BA417D080A809D055CF07F088
:1000A80056CF08F00F015451F00B04090AD055CF70
:1000B8001FF056CF20F0C5EC00F00F015451F00BA3
:1000C8000509546F7B9431C0F5FF30C0F8FF2FC08D
:1000D800F7FF2EC0F6FF2DC0F4FF2CC0F3FF2BC096
:1000E800DAFF2AC0D9FF29C0E2FF28C0E1FF27C0F4
:1000F800EAFF26C0E9FF25C0FBFF24C0FAFF3892BB
:1001080011001DEF01F0D388D38AD38C030ED312CC
:10011800000E0F01386F928892949296929AD08E20
:10012800F28EF28C9D829F82BA50BA84BA92BA90AB
:10013800010EBB6E0F015451F00B0509546FF30EFD
:100148000F0148177A847C949D809F80CD80CF0EC4
:10015800CD163F0ECD16CD8294860F013A9794881E
:100168000F013A99C68A180EC86EF80ECA6EC650A4
:10017800F00B0E09C66ECB9CCB9ACB949D869F96AE
:10018800120007501F5C08502058D8A00ED007C096
:1001980022F008C023F0221E231E224A232A1F50C1
:1001A8002224076E2050232009D0076C081ED8B0DF
:1001B800082A07501F24076E08502020086E07C021
:1001C80005F008C006F0990E055C3A0E0658D8A04E
:1001D80003D0808680841200890E055C130E0658B1
:1001E800D8A003D080868094120080968094120054
:1001F80020EE0AF03450D9263550DA22000EDF6E90
:1002080020EE0BF03450D9263550DA22000EDF6E7E
:1002180020EE0CF03450D9263550DA22FF0EDF6E6E
:1002280020EE0DF03450D9263550DA22000EDF6E5C
:10023800120000EE01F01E0EEE6AE806FDE13890AD
:100248003892000EF86E00012AEF01F087EC00F0FA
:1002580035EC01F08A0E346E010E356E3EEC01F07D
:10026800FFD7000E0F6E110E346E000E356EFCECCB
:0E02780000F0120034C036F035C037F012002E
:020000040020DA
:08000000FFFFFFFFFFFFFFFF00
:020000040030CA
:0E000000FF281F3CFFBF81FF0FC00FE00F4025
:00000001FF
