:0400000085EF00F098
:100008001E82FACF05F0FBCF06F0E9CF07F0EACF62
:1000180008F0E1CF09F0E2CF0AF0D9CF0BF0DACF40
:100028000CF0F3CF0DF0F4CF0EF0F6CF0FF0F7CFC2
:1000380010F0F8CF11F0F5CF12F09EB21DD024D0F9
:10004800BB68809A194A1A2A1ABE06D0580E195C3B
:10005800020E1A58D8B003D0194A1A2A14D0010E21
:100068001D6E000E1A6E000E196E0DD0030EBB6EBB
:10007800808A000E1D6E07D01D50000AD8B4E0D744
:10008800010AD8B4F3D79E929EA004D0000E146E35
:10009800000E136E7BA417D080A809D055CF17F097
:1000A80056CF18F00F015451F00B04090AD055CF60
:1000B80001F056CF02F087EC00F00F015451F00B1D
:1000C8000509546F7B9412C0F5FF11C0F8FF10C0EA
:1000D800F7FF0FC0F6FF0EC0F4FF0DC0F3FF0CC012
:1000E800DAFF0BC0D9FF0AC0E2FF09C0E1FF08C070
:1000F800EAFF07C0E9FF06C0FBFF05C0FAFF1E9232
:100108001100E8EF00F01750015C18500258D8A011
:100118000ED017C003F018C004F0031E041E034AD3
:10012800042A01500324176E0250042009D0176CCA
:10013800181ED8B0182A17500124176E185002201C
:10014800186E17C015F018C016F0990E155C3A0E07
:100158001658D8A003D0808680841200890E155CBA
:10016800130E1658D8A003D080868094120080966B
:1001780080941200D388D38AD38C030ED312000E36
:100188000F01386F928892949296929AD08EF28E3E
:10019800F28C9D829F82BA50BA84BA92BA90010EAC
:1001A800BB6E0F015451F00B0509546FF30E0F018C
:1001B80048177A847C949D809F80CD80CF0ECD1681
:1001C8003F0ECD16CD82120000EE15F0090EEE6A34
:1001D800E806FDE11E901E92000EF86E0001F5EF94
:0801E80000F0BEEC00F0FFD7AF
:020000040020DA
:08000000FFFFFFFFFFFFFFFF00
:020000040030CA
:0E000000FF281F3CFFBF81FF0FC00FE00F4025
:00000001FF
