:0400000088EF00F095
:100008003A82FACF0CF0FBCF0DF0E9CF0EF0EACF31
:100018000FF0E1CF10F0E2CF11F0D9CF12F0DACF24
:1000280013F0F3CF14F0F4CF15F0F6CF16F0F7CFA6
:1000380017F0F8CF18F0F5CF19F09EB21DD024D0E4
:10004800BB68809A224A232A23BE06D0580E225C17
:10005800020E2358D8B003D0224A232A14D0010E06
:100068002B6E000E236E000E226E0DD0030EBB6E9B
:10007800808A000E2B6E07D02B50000AD8B4E0D728
:10008800010AD8B4F3D79E929EA004D0000E1B6E2E
:10009800000E1A6E7BA417D080A809D055CF20F087
:1000A80056CF21F00F015451F00B04090AD055CF57
:1000B80008F056CF09F08AEC00F00F015451F00B0C
:1000C8000509546F7B949EB676EC01F019C0F5FFD4
:1000D80018C0F8FF17C0F7FF16C0F6FF15C0F4FFE9
:1000E80014C0F3FF13C0DAFF12C0D9FF11C0E2FF3A
:1000F80010C0E1FF0FC0EAFF0EC0E9FF0DC0FBFF13
:100108000CC0FAFF3A92110097EF01F02050085CFA
:1001180021500958D8A00ED020C00AF021C00BF0F9
:100128000A1E0B1E0A4A0B2A08500A24206E095080
:100138000B2013D020C00AF021C00BF00A1E0B1EA2
:100148000A4A0B2AFF0E0A24206EFF0E0B20216E8E
:1001580020500824206E21500920216E20C001F073
:1001680021C002F0000E046E0D0E036E0BEC01F0C0
:1001780001502A6E2AC001F0000EA4EC01F03C0EDA
:100188002A6403D0808680841200140E2A6403D067
:10019800808680941200809680941200000E0F01D1
:1001A800386F928892949296929AD08EF28EF28CB0
:1001B8009D829F82BA50BA84BA92BA90010EBB6EE1
:1001C8000F015451F00B0509546FF30E0F01481736
:1001D8007A847C949D809F80CD80CF0ECD163F0E73
:1001E800CD16CD8294860F013A9794880F013A99DB
:1001F800C68A180EC86EFE0ECA6EC650F00B0E09DF
:10020800C66ECB9CCB9ACB949D869F961200000E0F
:10021800066E000E056E03500410D8B41CD0010EF3
:10022800076E04D0D89003360436072A04AEFAD7EE
:10023800D890053606360350015C04500258D8A001
:1002480005D00350015E0450025A0580D89004324C
:100258000332072EEDD705C001F006C002F01200E8
:1002680020EE0AF01C50D9261D50DA22000EDF6E4F
:1002780020EE0BF01C50D9261D50DA22000EDF6E3E
:1002880020EE0CF01C50D9261D50DA22FF0EDF6E2E
:1002980020EE0DF01C50D9261D50DA22000EDF6E1C
:1002A8001200C7A61DD0C7A414D0C7AA03D006D071
:1002B800C68816D0C950C0EC01F0266E2650010D34
:1002C800270EF324D96E000EF420DA6EDF50C96EC3
:1002D800EFD7C7B0C7BA04D0C950C0EC01F0266E3A
:1002E8009E961200C7A61DD0C7A414D0C7AA03D0D3
:1002F80006D0C68816D0C950C7EC01F0266E265025
:10030800010D270EF324D96E000EF420DA6EDF50AB
:10031800C96EEFD7C7B0C7BA04D0C950C7EC01F04F
:10032800266E9E96120000EE1EF01C0EEE6AE8067F
:10033800FDE13A903A92000EF86E0001B9EF01F033
:10034800026E0250010D270EF324D96E000EF42020
:10035800DA6E01C0DFFF1200000E296E2C0E1C6E33
:10036800000E1D6E34EC01F01200D2EC00F0B0EC7F
:1003780001F055EC01F0FFD71C6ED8901C32010E2D
:100388001C161C501200016ED8900132010E011685
:0403980001501200FE
:020000040020DA
:08000000FFFFFFFFFFFFFFFF00
:020000040030CA
:0E000000FF281F3CFFBF81FF0FC00FE00F4025
:00000001FF
